:020000040800F2
:1080000000800020C18F0008698F00086F8F000872
:108010000000000000000000000000000000000060
:10802000000000000000000000000000758F000844
:1080300000000000000000007F8F0008898F00080A
:108040001190000800000000119000081190000835
:10805000938F0008119000081190000811900008FB
:108060000000000011900008119000081190000815
:108070001190000811900008119000080000000005
:1080800011900008119000089D8F000811900008C1
:10809000119000081190000811900008119000083C
:1080A000119000081190000811900008119000082C
:0C80B00011900008119000080000000072
:1080BC0010B5064C2378002B07D1054B002B02D0B2
:1080CC00044800E000BF0123237010BD0C04002005
:1080DC000000000038A90008044B10B5002B03D099
:1080EC000349044800E000BF10BDC046000000007A
:1080FC001004002038A90008002243088B4274D3D6
:10810C0003098B425FD3030A8B4244D3030B8B428C
:10811C0028D3030C8B420DD3FF22090212BA030C95
:10812C008B4202D31212090265D0030B8B4219D376
:10813C0000E0090AC30B8B4201D3CB03C01A524196
:10814C00830B8B4201D38B03C01A5241430B8B42DE
:10815C0001D34B03C01A5241030B8B4201D30B03C7
:10816C00C01A5241C30A8B4201D3CB02C01A5241EE
:10817C00830A8B4201D38B02C01A5241430A8B42B1
:10818C0001D34B02C01A5241030A8B4201D30B029A
:10819C00C01A5241CDD2C3098B4201D3CB01C01AB4
:1081AC00524183098B4201D38B01C01A52414309BE
:1081BC008B4201D34B01C01A524103098B4201D3AC
:1081CC000B01C01A5241C3088B4201D3CB00C01A19
:1081DC00524183088B4201D38B00C01A5241430891
:1081EC008B4201D34B00C01A5241411A00D20146B6
:1081FC00524110467047FFE701B5002000F006F829
:10820C0002BDC0460029F7D076E770477047C046DC
:10821C0080B582B000AF78607B68034A1A60C046B4
:10822C00BD4602B080BDC046CCCC000080B582B04B
:10823C0000AF78607B68034A1A60C046BD4602B046
:10824C0080BDC046AAAA000080B582B000AF78609D
:10825C007B68034A1A60C046BD4602B080BDC0466A
:10826C005555000080B582B000AF786039603B682E
:10827C0007221A407B685A60C046BD4602B080BDDA
:10828C0080B582B000AF786039603B681B051A0D71
:10829C007B689A60C046BD4602B080BD80B582B096
:1082AC0000AF78607B68DB680722134001D10123A3
:1082BC0000E000231800BD4602B080BD80B500AFC1
:1082CC00044B1A68034B802109030A431A60C04609
:1082DC00BD4680BD0010024080B500AF044B1A684B
:1082EC00034B802149020A431A60C046BD4680BD3B
:1082FC000010024080B500AF064B1A6880239B0229
:10830C001340054A944663445A425341DBB2180069
:10831C00BD4680BD001002400000FEFF80B500AFDE
:10832C00044B5A6A034B01210A435A62C046BD46AC
:10833C0080BDC0460010024080B500AF054B5B6AA3
:10834C0002221340023B5A425341DBB21800BD4695
:10835C0080BDC0460010024080B582B000AF78608E
:10836C00064B5B68032293431900044B7A680A435B
:10837C005A60C046BD4602B080BDC04600100240E7
:10838C0080B500AF034B5B680C2213401800BD4650
:10839C0080BDC0460010024080B582B000AF78604E
:1083AC00064B5B68F02293431900044B7A680A432E
:1083BC005A60C046BD4602B080BDC04600100240A7
:1083CC0080B582B000AF7860064B5B68064A1340FC
:1083DC001900044B7A680A435A60C046BD4602B085
:1083EC0080BDC04600100240FFF8FFFF80B582B090
:1083FC0000AF7860094B1B6B7A68120E0321914019
:10840C000A00D2431A4011007B681B021A0A034B64
:10841C000A431A63C046BD4602B080BD001002403C
:10842C0080B582B000AF7860064B1B6B1022934373
:10843C001900044B7A680A431A63C046BD4602B061
:10844C0080BDC0460010024080B500AF044B1A68D6
:10845C00034B802149040A431A60C046BD4680BDC7
:10846C000010024080B500AF074B1A6880239B04B4
:10847C001340FE221206944663445A425341DBB227
:10848C001800BD4680BDC0460010024080B584B0C7
:10849C0000AFF860B9607A600B4B5B680B4A134015
:1084AC001900FA68BB681A43074B0A435A60064B1B
:1084BC00DB6A0F2293431900034B7A680A43DA6292
:1084CC00C046BD4604B080BD00100240FF7FC2FF15
:1084DC0080B584B000AF7860074BD969064B7A68D9
:1084EC000A43DA61044BDB697A681340FB60FB6872
:1084FC00C046BD4604B080BD0010024080B582B0BD
:10850C0000AF7860064B1B68012293431900044BA3
:10851C007A680A431A60C046BD4602B080BDC046A8
:10852C000020024080B500AF034B1B6801221340B2
:10853C001800BD4680BDC0460020024080B582B008
:10854C0000AF78607B681B6880221A437B681A60D6
:10855C00C046BD4602B080BD80B586B000AF786025
:10856C003960234B3B610023FB600023BB6000237D
:10857C007B6135E039693868FFF7BEFD0300DAB27C
:10858C00FB68591CF9607968CB183032D2B21A707A
:10859C003B6839691800FFF735FE0B003B603B69FF
:1085AC000A211800FFF7A8FD03003B61FB68013BA3
:1085BC007A68D3181B78303B5A425341DBB2BA6805
:1085CC0051424A41D2B21340DBB2002B02D00023FD
:1085DC00FB6002E0BB680133BB607B6901337B61EC
:1085EC007B69092BC6D9C046C046BD4606B080BDC6
:1085FC0000CA9A3B90B585B000AF78600E23FB188B
:10860C0000221A8005E00E217B181A887B18013293
:10861C001A800E217B181B887A68D3181B78002BC4
:10862C00F1D1FA239C007B181A887968034823003F
:10863C0001F05EFCC046BD4605B090BDA80500200B
:10864C0090B58BB000AF00F0DFFC00F097F8002382
:10865C007B620CE07B6A9B003E4A9446634419683B
:10866C003D4B7A6A9200D1507B6A01337B627B6A04
:10867C002F2BEFD9394B9A69384B01210A439A6158
:10868C00364B9B69012213403B603B68344B1A68A4
:10869C00334B03218A431A60314B1A68304B032148
:1086AC000A431A6000F0FEF900F01AF900F040F9E4
:1086BC0000F0C8F900F096F900F0D2F800F0B0F82C
:1086CC0000F060F9274A284B11001800FFF7D8FD7D
:1086DC00254B1800FFF7AAFD2223FB1800221A8055
:1086EC003B1D00221A6004331A220021180002F0EC
:1086FC00F1F81E4B1800FFF77DFF1B4B1800FFF71E
:10870C0095FD80239B011A4A1900100000F051FFBF
:10871C00184B1800FFF76EFF22243B191A883B1DDB
:10872C0011001800FFF718FF3B1D1800FFF762FF40
:10873C00114B1800FFF75EFF3B191A883B190132E9
:10874C001A80642000F090FC074B1800FFF76EFDB8
:10875C00D3E7C04600800008000000200010024053
:10876C0000000140FF0F00000030004050A900083D
:10877C00000800486CA900087CA9000880B500AF6F
:10878C000120FFF7BBFEC046FFF7CCFE0300012B18
:10879C00FAD1FFF7A1FDC046FFF7ACFD0300012B9A
:1087AC00FAD1FFF7BBFDC046FFF7C6FD0300012B56
:1087BC00FAD1FFF783FD8023590380235B0200224B
:1087CC001800FFF763FEFFF73FFEC046FFF74AFEB7
:1087DC000300012BFAD10020FFF7DEFD0020FFF78C
:1087EC00EFFD0220FFF7B8FDC046FFF7C9FD0300FF
:1087FC00082BFAD1094B180002F05EF8032000F0A8
:10880C0029FB031E01D000F0C5F90020FFF7EEFD97
:10881C001020FFF705FEC046BD4680BD006CDC0293
:10882C0080B500AF0C4B0D4A1A600B4B00221A712D
:10883C00094B0022DA60084B00221A61064B012218
:10884C009A61054B180000F0E0FC031E01D000F00B
:10885C00A1F9C046BD4680BD28040020003002406E
:10886C0080B500AF1B4B1C4A1A601A4B1B4A5A604E
:10887C00184B00229A60174B0122DA60154B00222C
:10888C001A61144B00225A61124B00229A61114B4F
:10889C000022DA610F4B00221A620E4B180000F016
:1088AC00A3FE031E01D000F075F90A4B002118003D
:1088BC0000F030FF031E01D000F06CF9054B0021D5
:1088CC00180000F073FF031E01D000F063F9C046DE
:1088DC00BD4680BD44040020005400405D3E302065
:1088EC0080B500AF104B1800FFF792FC0E4B180030
:1088FC00FFF7AAFC0C4B06211800FFF7B3FC0B4A40
:10890C00094B11001800FFF7BBFCC046064B1800C2
:10891C00FFF7C4FC0300012BF8D1034B1800FFF741
:10892C0085FCC046BD4680BD00300040FF0F0000F6
:10893C0080B586B000AF3B1D180014231A0000212F
:10894C0001F0C8FF1020FFF7C3FD3B1D0A4A1A8037
:10895C003B1D00225A603B1D084A9A603B1D084A89
:10896C001900100001F030FF054B1800FFF7E6FD71
:10897C00C046BD4606B080BD80BBFFFFFFFF0000B8
:10898C000010004080B500AF144B154A1A60134B11
:10899C00E12252025A60114B00229A600F4B0022C6
:1089AC00DA600E4B00221A610C4B0C225A610B4BF5
:1089BC0000229A61094B0022DA61084B00221A62EC
:1089CC00064B00225A62054B180001F03DFA031EBB
:1089DC0001D000F0DFF8C046BD4680BD98040020F1
:1089EC000038014080B500AF144B154A1A60134B88
:1089FC00E12252025A60114B00229A600F4B002266
:108A0C00DA600E4B00221A610C4B0C225A610B4B94
:108A1C0000229A61094B0022DA61084B00221A628B
:108A2C00064B00225A62054B180001F00DFA031E8A
:108A3C0001D000F0AFF8C046BD4680BD2005002037
:108A4C000044004080B500AF144B154A1A60134B1C
:108A5C00E12252025A60114B00229A600F4B002205
:108A6C00DA600E4B00221A610C4B0C225A610B4B34
:108A7C0000229A61094B0022DA61084B00221A622B
:108A8C00064B00225A62054B180001F0DDF9031E5B
:108A9C0001D000F07FF8C046BD4680BDA80500207F
:108AAC000050004090B58BB000AF14243B19180057
:108ABC0014231A00002101F00DFF2B4B5A692A4B8D
:108ACC00802109030A435A61274B5A6980231B03EF
:108ADC0013403B613B69244B5A69234B8021C903EA
:108AEC000A435A61204B5A698023DB031340FB6015
:108AFC00FB681D4B5A691C4B802189020A435A6141
:108B0C00194B5A6980239B021340BB60BB68164B00
:108B1C005A69154B8021C9020A435A61124B5A6992
:108B2C008023DB0213407B607B6880239B010F4812
:108B3C000022190000F020FD3B19802292011A60DE
:108B4C003B1901225A603B1900229A603B19002202
:108B5C00DA603B19054A1900100000F09DFBC04675
:108B6C00BD460BB090BDC046001002400008004846
:108B7C0080B582B000AF78607B681B68044A934272
:108B8C0001D100F055FAC046BD4602B080BDC046CA
:108B9C000014004080B500AF72B6C046FEE700007E
:108BAC0080B582B000AF134B9A69124B01210A4376
:108BBC009A61104B9B69012213407B607B680D4BC3
:108BCC00DA690C4B802149050A43DA61094BDA69F1
:108BDC0080235B0513403B603B680022002104208E
:108BEC0000F0EEFA042000F000FBC046BD4602B0D7
:108BFC0080BDC0460010024080B584B000AF7860E4
:108C0C007B681B68094A93420BD1094B5A69084B84
:108C1C0040210A435A61064B5B6940221340FB60BA
:108C2C00FB68C046BD4604B080BDC0460030024063
:108C3C000010024090B58BB000AF786014243B1943
:108C4C00180014231A00002101F044FE7B681B68F5
:108C5C001D4A934233D11D4B5A691C4B802189020A
:108C6C000A435A61194B5A6980239B0213403B619A
:108C7C003B693B19C022D2001A6021007B181222DA
:108C8C005A607B1800229A607B180322DA607B18EA
:108C9C0004221A617A189023DB051100180000F0E9
:108CAC00FBFA0A4BDA69094B802189030A43DA6122
:108CBC00064BDA6980239B031340FB60FB68C046BC
:108CCC00BD460BB090BDC0460054004000100240A1
:108CDC0090B58FB000AF786024243B191800142392
:108CEC001A00002101F0F6FD7B681B68544A934280
:108CFC0032D1544B9A69534B8021C9010A439A6172
:108D0C00504B9A698023DB0113403B623B6A4D4B0D
:108D1C005A694C4B8021C9020A435A61494B5A6922
:108D2C008023DB021340FB61FB6921007B18C0220E
:108D3C001A607B1802225A607B1800229A607B18FA
:108D4C000322DA607B1800221A617B183E4A190054
:108D5C00100000F0A1FA6FE07B681B683B4A93425D
:108D6C0033D1384BDA69374B802189020A43DA61F7
:108D7C00344BDA6980239B021340BB61BB69314BD6
:108D8C005A69304B802189020A435A612D4B5A692A
:108D9C0080239B0213407B617B6924217B180C226E
:108DAC001A607B1802225A607B1800229A607B188A
:108DBC000322DA607B1801221A617A189023DB05F2
:108DCC001100180000F068FA36E07B681B68204A36
:108DDC00934231D11B4BDA691A4B802149030A4368
:108DEC00DA61184BDA6980235B0313403B613B6902
:108DFC00144B5A69134B8021C9020A435A61114B17
:108E0C005A698023DB021340FB60FB6824217B182A
:108E1C0018221A607B1802225A607B1800229A6072
:108E2C007B180322DA607B1804221A617B18064A2D
:108E3C001900100000F030FAC046BD460FB090BDCE
:108E4C00003801400010024000040048004400407B
:108E5C0000500040B0B58CB000AF786000237B624E
:108E6C0000233B62374BDA69364B20210A43DA6127
:108E7C00344BDB6920221340BB60BB680C23FA180F
:108E8C0010243B191100180000F054FD3B19DB684D
:108E9C007B627B6A002B04D100F036FD0300FB6281
:108EAC0004E000F031FD03005B00FB62FB6A264925
:108EBC001800FFF721F90300013B3B62234B244AC6
:108ECC001A60224B234ADA60204B3A6A5A601F4BD5
:108EDC0000221A611D4B00229A601C4B00229A61E1
:108EEC002B257C19194B180000F04EFD0300237044
:108EFC007B191B78002B1ED17C19144B180000F029
:108F0C009BFD030023707B191B78002B13D11220BF
:108F1C0000F06BF97B68032B09D87B6800221900E1
:108F2C00122000F04DF90C4B7A681A6003E02B23E9
:108F3C00FB1801221A702B23FB181B781800BD4656
:108F4C000CB0B0BD0010024040420F0030060020B3
:108F5C0000140040E70300000404002080B500AFBB
:108F6C00FEE780B500AFFEE780B500AFC046BD465A
:108F7C0080BD80B500AFC046BD4680BD80B500AF9A
:108F8C00C046BD4680BD80B500AFC046BD4680BD65
:108F9C0080B500AF034B180000F09AFDC046BD46EB
:108FAC0080BDC0463006002080B500AFC046BD462F
:108FBC0080BD00000D488546FFF7F6FF0C480D49B3
:108FCC000D4A002302E0D458C4500433C4188C4218
:108FDC00F9D30A4A0A4C002301E013600432A2427E
:108FEC00FBD301F07FFCFFF72BFBFEE7008000209A
:108FFC00000400200C040020B0A900080C04002080
:10900C007C060020FEE7000080B500AF074B1A6815
:10901C00064B10210A431A600320FFF71BFFFFF7D2
:10902C00BFFD00231800BD4680BDC0460020024095
:10903C0080B500AF054B1B781A00054B1B68D21886
:10904C00034B1A60C046BD4680BDC04608040020D4
:10905C007806002080B500AF024B1B681800BD4697
:10906C0080BDC0467806002080B584B000AF786023
:10907C00FFF7F0FF0300BB607B68FB60FB6801330C
:10908C0005D00A4B1B781A00FB689B18FB60C04686
:10909C00FFF7E0FF0200BB68D31AFA689A42F7D8D0
:1090AC00C046C046BD4604B080BDC0460804002082
:1090BC0080B582B000AF0200FB1D1A70FB1D1B783F
:1090CC007F2B09D8FB1D1B781A001F231A40044B59
:1090DC00012191400A001A60C046BD4602B080BD15
:1090EC0000E100E090B583B000AF02003960FB1DD9
:1090FC001A70FB1D1B787F2B28D82F4AFB1D1B7861
:10910C005BB29B08C0339B009B58FA1D1278110070
:10911C0003220A40D200FF2191400A00D2431A4098
:10912C0011003B689B01FF221A40FB1D1B781800A5
:10913C0003230340DB009A401F48FB1D1B785BB2E6
:10914C009B080A43C0339B001A5031E01B4AFB1D9D
:10915C001B7819000F230B40083B9B0806339B0020
:10916C00D31804331B68FA1D1278110003220A402D
:10917C00D200FF2191400A00D2431A4011003B68F3
:10918C009B01FF221A40FB1D1B7818000323034090
:10919C00DB009A400948FB1D1B781C000F23234061
:1091AC00083B9B080A4306339B00C31804331A6020
:1091BC00C046BD4603B090BD00E100E000ED00E00C
:1091CC0080B584B000AFB9607A600F217B18021CA7
:1091DC001A70BA687B181B785BB211001800FFF785
:1091EC0081FFC046BD4604B080BD80B582B000AFE3
:1091FC000200FB1D1A70FB1D1B785BB21800FFF7F9
:10920C0057FFC046BD4602B080BD80B582B000AFEE
:10921C0078607B68002B01D1012339E07B685B7D92
:10922C00DBB2002B06D17B6800221A757B68180014
:10923C00FFF7E2FC7B6802225A757B681B79002BD6
:10924C0005D17B681B68012252421A6104E07B68DD
:10925C001B687A6892681A617B681B689B6860223D
:10926C00934319007B68DA687B681B680A439A6031
:10927C007B681B689B688022934319007B681A6982
:10928C007B681B680A439A607B6801225A7500232D
:10929C001800BD4602B080BD80B586B000AF7860C6
:1092AC00396000237B614FE13B681B6801217A69BF
:1092BC0091400A001340FB60FB68002B00D140E199
:1092CC003B685B6803221340012B05D03B685B684D
:1092DC0003221340022B30D17B689B683B617B6976
:1092EC005B0003229A401300DA433B6913403B6155
:1092FC003B68DA687B695B009A4013003A69134358
:10930C003B617B683A699A607B685B683B610122D0
:10931C007B699A401300DA433B6913403B613B681D
:10932C005B681B0901221A407B699A4013003A6959
:10933C0013433B617B683A695A603B685B68032264
:10934C001340032B17D07B68DB683B617B695B00A8
:10935C0003229A401300DA433B6913403B613B689C
:10936C009A687B695B009A4013003A6913433B612E
:10937C007B683A69DA603B685B6803221340022B16
:10938C0023D17B69DA087B6808329200D3583B61A1
:10939C007B69072213409B000F229A401300DA438B
:1093AC003B6913403B613B681A697B6907210B40A1
:1093BC009B009A4013003A6913433B617B69DA08BE
:1093CC007B68083292003969D1507B681B683B611D
:1093DC007B695B0003229A401300DA433B6913401C
:1093EC003B613B685B6803221A407B695B009A40D7
:1093FC0013003A6913433B617B683A691A603B6816
:10940C005A68C0239B02134000D19AE0544B9A69CE
:10941C00534B01210A439A61514B9B690122134022
:10942C00BB60BB684F4A7B699B0802339B009B580F
:10943C003B617B69032213409B000F229A4013006F
:10944C00DA433B6913403B617A689023DB059A420F
:10945C0013D07B68444A93420DD07B68434A9342B5
:10946C0007D07B68424A934201D1032306E00523CF
:10947C0004E0022302E0012300E000237A690321C7
:10948C000A40920093403A6913433B6135497B692A
:10949C009B0802339B003A695A50364B9B683B61E0
:1094AC00FB68DA433B6913403B613B685A68802395
:1094BC005B03134003D03A69FB6813433B612D4BAC
:1094CC003A699A602B4BDB683B61FB68DA433B697A
:1094DC0013403B613B685A6880239B03134003D0C5
:1094EC003A69FB6813433B61224B3A69DA60214BC2
:1094FC005B683B61FB68DA433B6913403B613B684B
:10950C005A6880239B02134003D03A69FB681343CB
:10951C003B61184B3A695A60164B1B683B61FB6800
:10952C00DA433B6913403B613B685A6880235B021A
:10953C00134003D03A69FB6813433B610D4B3A6906
:10954C001A607B6901337B613B681A687B69DA407E
:10955C00131E00D0A8E6C046C046BD4606B080BD6E
:10956C0000100240000001400004004800080048C0
:10957C00000C00480004014080B582B000AF786058
:10958C0008001100BB1C021C1A807B1C0A1C1A70E0
:10959C007B1C1B78002B04D0BB1C1A887B689A613F
:1095AC0003E0BB1C1A887B689A62C046BD4602B0B9
:1095BC0080BD80B584B000AF78600A00BB1C1A80F7
:1095CC007B685B69FB60BB1C1B88FA6813401A0440
:1095DC00FB68DB43B91C09880B401A437B689A6112
:1095EC00C046BD4604B080BD80B582B000AF786087
:1095FC007B68002B01D1012382E07B6841229B5CBC
:10960C00DBB2002B07D17B684022002199547B6888
:10961C001800FFF70FFB7B684122242199547B68CB
:10962C001B681A687B681B6801218A431A607B6877
:10963C005A687B681B6834490A401A617B681B684E
:10964C009A687B681B6831490A409A607B68DB68C2
:10965C00012B08D17B689A687B681B688021090202
:10966C000A439A6007E07B689A687B681B688421D0
:10967C0009020A439A607B68DB68022B04D17B6881
:10968C001B68802212015A607B681B685A687B68D1
:10969C001B681F490A435A607B681B68DA687B6841
:1096AC001B681A490A40DA607B681A697B685B6937
:1096BC001A4311007B689B691A027B681B680A437A
:1096CC00DA607B68D9697B681A6A7B681B680A4315
:1096DC001A607B681B681A687B681B6801210A4347
:1096EC001A607B6800225A647B68412220219954BD
:1096FC007B6800221A637B68422200219954002364
:10970C001800BD4602B080BDFFFFFFF0FF7FFFFFDA
:10971C000080000280B582B000AF786039607B6851
:10972C0041229B5CDBB2202B38D17B6840229B5CB6
:10973C00012B01D1022332E07B6840220121995494
:10974C007B684122242199547B681B681A687B68CA
:10975C001B6801218A431A607B681B681A687B6846
:10976C001B6811490A401A607B681B6819687B6882
:10977C001B683A680A431A607B681B681A687B6826
:10978C001B6801210A431A607B68412220219954ED
:10979C007B68402200219954002300E0022318002A
:1097AC00BD4602B080BDC046FFEFFFFF80B584B060
:1097BC0000AF786039607B6841229B5CDBB2202B68
:1097CC0039D17B6840229B5C012B01D1022333E011
:1097DC007B684022012199547B68412224219954B1
:1097EC007B681B681A687B681B6801218A431A60B6
:1097FC007B681B681B68FB60FB68114A1340FB60AD
:10980C003B681B02FA681343FB607B681B68FA68B1
:10981C001A607B681B681A687B681B6801210A4305
:10982C001A607B684122202199547B6840220021D8
:10983C009954002300E002231800BD4604B080BDFB
:10984C00FFF0FFFF80B586B000AF0023FB60002364
:10985C00BB6000237B6100237B6000233B61214BB9
:10986C005B68FB60FB680C221340042B02D0082BB6
:10987C0003D02EE01C4B3B612EE0FB689B0C0F22AF
:10988C0013401A4AD35C7B60164BDB6A0F221340E1
:10989C00174AD35CBB60FA68C0235B021A40802372
:1098AC005B029A4209D1B9680F48FEF725FC030008
:1098BC001A007B6853437B6108E0B9680A48FEF7DD
:1098CC001BFC03001A007B6853437B617B693B6183
:1098DC0002E0054B3B61C0463B691800BD4606B033
:1098EC0080BDC0460010024000127A0088A9000812
:1098FC0098A9000880B500AF024B1B681800BD4644
:10990C0080BDC0460004002080B500AFFFF7F2FF19
:10991C000100064B5B681B0A07221340044AD35C08
:10992C00D9400B001800BD4680BDC0460010024057
:10993C0080A9000880B582B000AF786039607B6880
:10994C0007221A600E4B5B6803221A407B685A6030
:10995C000B4B5B68F0221A407B689A60084B5A6884
:10996C00E023DB001A407B68DA60064B1B6801229F
:10997C001A403B681A60C046BD4602B080BDC04666
:10998C00001002400020024080B582B000AF786029
:10999C007B68002B01D1012342E07B683D229B5C5C
:1099AC00DBB2002B07D17B683C22002199547B68E9
:1099BC00180000F039F87B683D22022199547B682D
:1099CC001A687B6804331900100000F0B7F97B6843
:1099DC004622012199547B683E22012199547B68CF
:1099EC003F22012199547B684022012199547B68C4
:1099FC004122012199547B684222012199547B68B0
:109A0C004322012199547B684422012199547B689B
:109A1C004522012199547B683D2201219954002350
:109A2C001800BD4602B080BD80B582B000AF786032
:109A3C00C046BD4602B080BD80B584B000AF786032
:109A4C007B683D229B5CDBB2012B01D0012335E00E
:109A5C007B683D22022199547B681B68DA687B681D
:109A6C001B6801210A43DA607B681B68154A934224
:109A7C0009D07B681B68144A934204D07B681B682E
:109A8C00124A934211D17B681B689B6807221340D2
:109A9C00FB60FB68062B10D07B681B681A687B6820
:109AAC001B6801210A431A6007E07B681B681A686F
:109ABC007B681B6801210A431A6000231800BD460D
:109ACC0004B080BD002C0140000400400040014067
:109ADC0080B582B000AF78607B681B681B6902227E
:109AEC001340022B24D17B681B68DB6802221340D5
:109AFC00022B1DD17B681B68032252421A617B68C2
:109B0C0001221A777B681B689B690322134004D0DF
:109B1C007B68180000F0FAF807E07B68180000F08A
:109B2C00EDF87B68180000F0F9F87B6800221A77D2
:109B3C007B681B681B6904221340042B25D17B68AE
:109B4C001B68DB6804221340042B1ED17B681B6846
:109B5C00052252421A617B6802221A777B681B68C5
:109B6C009A69C0239B00134004D07B68180000F056
:109B7C00CDF807E07B68180000F0C0F87B6818008F
:109B8C0000F0CCF87B6800221A777B681B681B6995
:109B9C0008221340082B24D17B681B68DB68082241
:109BAC001340082B1DD17B681B68092252421A6195
:109BBC007B6804221A777B681B68DB6903221340DD
:109BCC0004D07B68180000F0A1F807E07B6818004F
:109BDC0000F094F87B68180000F0A0F87B68002275
:109BEC001A777B681B681B6910221340102B25D138
:109BFC007B681B68DB6810221340102B1ED17B681E
:109C0C001B68112252421A617B6808221A777B6802
:109C1C001B68DA69C0239B00134004D07B681800D2
:109C2C0000F074F807E07B68180000F067F87B68B8
:109C3C00180000F073F87B6800221A777B681B68A9
:109C4C001B6901221340012B0FD17B681B68DB6859
:109C5C0001221340012B08D17B681B68022252425F
:109C6C001A617B681800FEF783FF7B681B681B6911
:109C7C0080221340802B0FD17B681B68DB6880220D
:109C8C001340802B08D17B681B68812252421A61D9
:109C9C007B68180000F0D0F87B681B681B694022B9
:109CAC001340402B0FD17B681B68DB6840221340AC
:109CBC00402B08D17B681B68412252421A617B6899
:109CCC00180000F033F87B681B681B6920221340D6
:109CDC00202B0FD17B681B68DB6820221340202BC4
:109CEC0008D17B681B68212252421A617B681800DC
:109CFC0000F09AF8C046BD4602B080BD80B582B077
:109D0C0000AF7860C046BD4602B080BD80B582B061
:109D1C0000AF7860C046BD4602B080BD80B582B051
:109D2C0000AF7860C046BD4602B080BD80B582B041
:109D3C0000AF7860C046BD4602B080BD80B584B02F
:109D4C0000AF786039607B681B68FB607B682F4ACA
:109D5C00934203D07B682E4A934208D1FB68702251
:109D6C009343FB603B685B68FA681343FB607B685A
:109D7C00264A934213D07B68254A93420FD07B68C6
:109D8C00244A93420BD07B68234A934207D07B68CA
:109D9C00224A934203D07B68214A934208D1FB6844
:109DAC00204A1340FB603B68DB68FA681343FB6096
:109DBC00FB68802293431A003B685B691343FB608A
:109DCC007B68FA681A603B689A687B68DA623B6861
:109DDC001A687B689A627B680C4A93420BD07B684A
:109DEC000D4A934207D07B680C4A934203D07B68A0
:109DFC000B4A934203D13B681A697B681A637B68F0
:109E0C0001225A61C046BD4604B080BD002C014001
:109E1C00000400400020004000400140004401408C
:109E2C0000480140FFFCFFFF80B582B000AF7860B6
:109E3C00C046BD4602B080BD80B582B000AF786030
:109E4C00C046BD4602B080BD80B582B000AF786020
:109E5C007B68002B01D1012344E07B68DB6F002B76
:109E6C0007D17B687822002199547B681800FEF793
:109E7C002FFF7B682422DA677B681B681A687B6873
:109E8C001B6801218A431A607B68180000F0D0F827
:109E9C000300012B01D1012324E07B685B6A002BBA
:109EAC0003D07B68180000F033FA7B681B685A6893
:109EBC007B681B680D490A405A607B681B689A686E
:109ECC007B681B6808218A439A607B681B681A6848
:109EDC007B681B6801210A431A607B68180000F03C
:109EEC00CBFA03001800BD4602B080BDFFF7FFFFA0
:109EFC0080B58AB002AFF860B9603B60BB1D1A80B8
:109F0C00FB68DB6F202B00D08DE0BB68002B03D0EF
:109F1C00BB1D1B88002B01D1012385E0FB689A68CF
:109F2C0080235B019A4209D1FB681B69002B05D188
:109F3C00BB680122134001D0012375E0FB68842229
:109F4C0000219950FB682122DA67FFF783F80300A0
:109F5C007B61FB68BA1D502112885A52FB68BA1DEE
:109F6C00522112885A52FB689A6880235B019A42EC
:109F7C0008D1FB681B69002B04D10023FB61BB6873
:109F8C00BB6103E0BB68FB610023BB6130E07A6915
:109F9C00F8683B68009313000022802100F014FB4A
:109FAC00031E04D0FB682022DA6703233CE0FB6924
:109FBC00002B0BD1BB691A88FB681B68D205D20D2C
:109FCC0092B21A85BB690233BB6108E0FB691A784F
:109FDC00FB681B6892B21A85FB690133FB61FB6855
:109FEC0052229B5A9BB2013B99B2FB685222995266
:109FFC00FB6852229B5A9BB2002BC8D17A69F86835
:10A00C003B68009313000022402100F0DDFA031E90
:10A01C0004D0FB682022DA67032305E0FB682022CA
:10A02C00DA67002300E002231800BD4608B080BDAB
:10A03C0080B588B000AF78601E23FB1800221A7020
:10A04C007B689A687B681B691A437B685B691A4357
:10A05C007B68DB6913437B617B681B681B68A14AC7
:10A06C00134019007B681B687A690A431A607B6885
:10A07C001B685B689C4A134019007B68DA687B6834
:10A08C001B680A435A607B689B697B617B681B6A0F
:10A09C007A6913437B617B681B689B68934A134006
:10A0AC0019007B681B687A690A439A607B681B6895
:10A0BC008F4A934227D18F4B1B6B03221340032BE8
:10A0CC000DD01BD8022B14D018D8002B02D0012B8A
:10A0DC000AD013E01F23FB1800221A7049E01F233B
:10A0EC00FB1802221A7044E01F23FB1804221A707A
:10A0FC003FE01F23FB1808221A703AE01F23FB18BD
:10A10C0010221A7035E07B681B687B4A934204D19D
:10A11C001F23FB1800221A702BE07B681B68774A00
:10A12C00934204D11F23FB1800221A7021E07B6894
:10A13C001B68734A934204D11F23FB1800221A7028
:10A14C0017E07B681B686F4A934204D11F23FB18EE
:10A15C0000221A700DE07B681B686B4A934204D195
:10A16C001F23FB1800221A7003E01F23FB18102278
:10A17C001A707B68DA6980231B029A425CD11F2318
:10A18C00FB181B78082B15D018DC042B0DD015DC14
:10A19C00002B02D0022B05D010E0FFF7B5FB03001B
:10A1AC00BB6112E0594BBB610FE0FFF74BFB0300A7
:10A1BC00BB610AE080231B02BB6106E00023BB618C
:10A1CC001E23FB1801221A70C046BB69002B00D15C
:10A1DC007AE0BB695A007B685B685B08D2187B68C5
:10A1EC005B6819001000FDF787FF03003B613B69BA
:10A1FC000F2B1CD93A6980235B029A4217D23B6918
:10A20C009AB20E203B180F218A431A803B695B08D7
:10A21C009BB20722134099B23B183A1812880A4392
:10A22C001A807B681B683A181288DA604CE01E238F
:10A23C00FB1801221A7047E01F23FB181B78082B10
:10A24C0015D018DC042B0DD015DC002B02D0022B02
:10A25C0005D010E0FFF758FB0300BB6112E02B4B5D
:10A26C00BB610FE0FFF7EEFA0300BB610AE080234D
:10A27C001B02BB6106E00023BB611E23FB180122FD
:10A28C001A70C046BB69002B1ED07B685B685A08ED
:10A29C00BB69D2187B685B6819001000FDF72CFFB6
:10A2AC0003003B613B690F2B0AD93A6980235B029F
:10A2BC009A4205D23B699AB27B681B68DA6003E06C
:10A2CC001E23FB1801221A707B6800229A667B6899
:10A2DC000022DA661E23FB181B781800BD4608B056
:10A2EC0080BDC046F369FFEFFFCFFFFFFFF4FFFF18
:10A2FC00003801400010024000440040004800407B
:10A30C00004C0040005000400014014000127A0044
:10A31C0080B582B000AF78607B685B6A0122134025
:10A32C000BD07B681B685B684A4A134019007B683A
:10A33C009A6A7B681B680A435A607B685B6A0222D4
:10A34C0013400BD07B681B685B68434A13401900B1
:10A35C007B68DA6A7B681B680A435A607B685B6AB5
:10A36C00042213400BD07B681B685B683B4A13408C
:10A37C0019007B681A6B7B681B680A435A607B6800
:10A38C005B6A082213400BD07B681B685B68344AFD
:10A39C00134019007B685A6B7B681B680A435A6030
:10A3AC007B685B6A102213400BD07B681B689B6830
:10A3BC002C4A134019007B689A6B7B681B680A4314
:10A3CC009A607B685B6A202213400BD07B681B6809
:10A3DC009B68254A134019007B68DA6B7B681B6805
:10A3EC000A439A607B685B6A402213401DD07B68ED
:10A3FC001B685B681D4A134019007B681A6C7B68EC
:10A40C001B680A435A607B681A6C80235B039A4270
:10A41C000BD17B681B685B68154A134019007B687D
:10A42C005A6C7B681B680A435A607B685B6A8022A3
:10A43C0013400BD07B681B685B680E4A13401900F5
:10A44C007B689A6C7B681B680A435A60C046BD46A1
:10A45C0002B080BDFFFFFDFFFFFFFEFFFFFFFBFF14
:10A46C00FF7FFFFFFFEFFFFFFFDFFFFFFFFFEFFFB0
:10A47C00FFFF9FFFFFFFF7FF80B592B002AF786040
:10A48C007B68842200219950FEF7E4FD0300FB63F6
:10A49C007B681B681B6808221340082B2CD1FB6BB4
:10A4AC00802291037868464A0092002200F08CF8D2
:10A4BC00031E21D0EFF310837B627B6ABB63012305
:10A4CC00BB62BB6A83F31088C0467B681B681A6842
:10A4DC007B681B6880218A431A60BB6BFB62FB6A3A
:10A4EC0083F31088C0467B682022DA677B68782269
:10A4FC000021995403235FE07B681B681B680422CE
:10A50C001340042B46D1FB6B8022D10378682C4A74
:10A51C000092002200F058F8031E3BD0EFF310839A
:10A52C00FB60FB687B6301233B613B6983F3108811
:10A53C00C0467B681B681A687B681B6821490A4007
:10A54C001A607B6B7B617B6983F31088C046EFF3E9
:10A55C001083BB61BB693B630123FB61FB6983F324
:10A56C001088C0467B681B689A687B681B68012151
:10A57C008A439A603B6B3B623B6A83F31088C0460C
:10A58C007B688022202199507B6878220021995485
:10A59C00032311E07B682022DA677B68802220216C
:10A5AC0099507B6800221A667B6800225A667B6889
:10A5BC0078220021995400231800BD4610B080BDAC
:10A5CC00FFFFFF01DFFEFFFF80B584B000AFF86036
:10A5DC00B9603B60FB1D1A704BE0BB69013348D07E
:10A5EC00FEF738FD02003B68D31ABA699A4202D3CF
:10A5FC00BB69002B01D103234BE0FB681B681B6874
:10A60C000422134035D0FB681B68DB690822134019
:10A61C00082B11D1FB681B6808221A62FB68180012
:10A62C0000F03CF8FB68842208219950FB687822E2
:10A63C000021995401232CE0FB681B68DA69802304
:10A64C001B011A4080231B019A4212D1FB681B6824
:10A65C00802212011A62FB68180000F01FF8FB68D8
:10A66C00842220219950FB687822002199540323DD
:10A67C000FE0FB681B68DB69BA681340BA68D31A31
:10A68C005A425341DBB21A00FB1D1B789A42A4D0EC
:10A69C0000231800BD4604B080BD000080B58EB00C
:10A6AC0000AF7860EFF310837B617B697B630123E0
:10A6BC00BB61BB6983F31088C0467B681B681A6852
:10A6CC007B681B6826490A401A607B6BFB61FB693F
:10A6DC0083F31088C046EFF310833B623B6A3B6305
:10A6EC0001237B627B6A83F31088C0467B681B68FE
:10A6FC009A687B681B6801218A439A603B6BBB623A
:10A70C00BB6A83F31088C0467B681B6E012B18D183
:10A71C00EFF31083BB60BB68FB620123FB60FB683B
:10A72C0083F31088C0467B681B681A687B681B68BB
:10A73C0010218A431A60FB6A3B613B6983F31088E2
:10A74C00C0467B688022202199507B6800221A66C3
:10A75C007B6800229A66C046BD460EB080BDC046DE
:10A76C00DFFEFFFF80B582B000AF786039607B6898
:10A77C003A689A62C046BD4602B080BD80B582B0D0
:10A78C0000AF786039607B683A68DA62C046BD46D3
:10A79C0002B080BD80B582B000AF786039607B6854
:10A7AC003A681A63C046BD4602B080BD80B582B01F
:10A7BC0000AF78607B685B6901221A437B685A6141
:10A7CC00C046BD4602B080BD80B584B000AF786095
:10A7DC0039607B681B68FB607B68304A934203D00E
:10A7EC007B682F4A934207D1FB68702293431A006F
:10A7FC003B685B681343FB607B68284A934213D029
:10A80C007B68274A93420FD07B68264A93420BD031
:10A81C007B68254A934207D07B68244A934203D035
:10A82C007B68234A934206D1FB68224A1A403B6854
:10A83C00DB681343FB607B68FA681A603B689A68B4
:10A84C007B6811001800FFF799FF3B681B881A0002
:10A85C007B6811001800FFF785FF7B680F4A934255
:10A86C000BD07B68104A934207D07B680F4A934207
:10A87C0003D07B680E4A934206D13B681A697B6809
:10A88C0011001800FFF786FF7B681800FFF78EFF9A
:10A89C0000231800BD4604B080BDC046002C01400A
:10A8AC0000040040002000400040014000440140F2
:10A8BC0000480140FFFCFFFF80B582B000AF78601C
:10A8CC00034B7A681A60C046BD4602B080BDC046D4
:10A8DC000004002003008218934200D170471970C5
:10A8EC000133F9E770B500260C4C0D4D641BA41018
:10A8FC00A64209D1002600F019F80A4C0A4D641B37
:10A90C00A410A64205D170BDB300EB589847013690
:10A91C00EEE7B300EB5898470136F2E7A8A9000818
:10A92C00A8A90008ACA90008A8A90008F8B5C04659
:10A93C00F8BC08BC9E467047F8B5C046F8BC08BCCD
:04A94C009E4670476C
:10A950002D2D2D55534552204150504C49434154C3
:10A96000494F4E20312D2D2D0D0A0000436F756E7D
:10A9700074205573657220313A2000000D0A0000E2
:10A980000000000001020304020304050607080991
:10A990000A0B0C0D0E0F1010010203040506070828
:08A9A000090A0B0C0D0E0F104B
:04A9A800E58000083E
:04A9AC00BD80000862
:0CA9B00000127A0004000000010000000A
:10A9BC00000000000000000000000000000000008B
:10A9CC00000000000000000000000000000000007B
:10A9DC00000000000000000000000000000000006B
:10A9EC00000000000000000000000000000000005B
:10A9FC00000000000000000000000000000000004B
:10AA0C00000000000000000000000000000000003A
:10AA1C00000000000000000000000000000000002A
:10AA2C00000000000000000000000000000000001A
:10AA3C00000000000000000000000000000000000A
:10AA4C0000000000000000000000000000000000FA
:10AA5C0000000000000000000000000000000000EA
:10AA6C0000000000000000000000000000000000DA
:0400000508008FC19F
:00000001FF
