:020000040800F2
:1080000000800020518F00088D8E0008938E00089C
:108010000000000000000000000000000000000060
:10802000000000000000000000000000998E000821
:108030000000000000000000A38E0008AD8E0008C4
:10804000A18F000800000000A18F0008A18F000888
:10805000B78E0008A18F0008A18F0008A18F00082B
:1080600000000000A18F0008A18F0008A18F000868
:10807000A18F0008A18F0008A18F00080000000058
:10808000A18F0008A18F0008C18E0008A18F0008F1
:10809000A18F0008A18F0008A18F0008A18F000800
:1080A000A18F0008A18F0008A18F0008A18F0008F0
:0C80B000A18F0008A18F00080000000054
:1080BC0010B5064C2378002B07D1054B002B02D0B2
:1080CC00044800E000BF0123237010BD5C040020B5
:1080DC0000000000BCB10008044B10B5002B03D00D
:1080EC000349044800E000BF10BDC046000000007A
:1080FC0060040020BCB1000803B47146490840007C
:10810C004900095E49008E4403BC704700224308B5
:10811C008B4274D303098B425FD3030A8B4244D343
:10812C00030B8B4228D3030C8B420DD3FF22090285
:10813C0012BA030C8B4202D31212090265D0030B44
:10814C008B4219D300E0090AC30B8B4201D3CB033A
:10815C00C01A5241830B8B4201D38B03C01A52417C
:10816C00430B8B4201D34B03C01A5241030B8B427E
:10817C0001D30B03C01A5241C30A8B4201D3CB0269
:10818C00C01A5241830A8B4201D38B02C01A52414E
:10819C00430A8B4201D34B02C01A5241030A8B4251
:1081AC0001D30B02C01A5241CDD2C3098B4201D369
:1081BC00CB01C01A524183098B4201D38B01C01AE7
:1081CC00524143098B4201D34B01C01A524103095E
:1081DC008B4201D30B01C01A5241C3088B4201D30D
:1081EC00CB00C01A524183088B4201D38B00C01ABA
:1081FC00524143088B4201D34B00C01A5241411AE1
:10820C0000D20146524110467047FFE701B50020ED
:10821C0000F006F802BDC0460029F7D076E770479B
:10822C007047C04680B582B000AF78607B68034A67
:10823C001A60C046BD4602B080BDC046CCCC000022
:10824C0080B582B000AF78607B68034A1A60C04684
:10825C00BD4602B080BDC046AAAA000080B582B05F
:10826C0000AF78607B68034A1A60C046BD4602B016
:10827C0080BDC0465555000080B582B000AF786017
:10828C0039603B6807221A407B685A60C046BD467D
:10829C0002B080BD80B582B000AF786039603B68B9
:1082AC001B051A0D7B689A60C046BD4602B080BDA6
:1082BC0080B582B000AF78607B68DB680722134022
:1082CC0001D1012300E000231800BD4602B080BD9F
:1082DC0080B500AF044B1A68034B802109030A4395
:1082EC001A60C046BD4680BD0010024080B500AF8C
:1082FC00044B1A68034B802149020A431A60C0469A
:10830C00BD4680BD0010024080B500AF064B1A6818
:10831C0080239B021340054A944663445A425341BE
:10832C00DBB21800BD4680BD001002400000FEFF0D
:10833C0080B500AF044B5A6A034B01210A435A62C1
:10834C00C046BD4680BDC0460010024080B500AF9F
:10835C00054B5B6A02221340023B5A425341DBB28B
:10836C001800BD4680BDC0460010024080B582B0EA
:10837C0000AF7860064B5B68032293431900044BF3
:10838C007A680A435A60C046BD4602B080BDC046FA
:10839C000010024080B500AF034B5B680C22134009
:1083AC001800BD4680BDC0460010024080B582B0AA
:1083BC0000AF7860064B5B68F02293431900044BC6
:1083CC007A680A435A60C046BD4602B080BDC046BA
:1083DC000010024080B582B000AF7860064B5B683D
:1083EC00064A13401900044B7A680A435A60C04687
:1083FC00BD4602B080BDC04600100240FFF8FFFF32
:10840C0080B582B000AF7860094B1B6B7A68120E96
:10841C00032191400A00D2431A4011007B681B02D1
:10842C001A0A034B0A431A63C046BD4602B080BD0C
:10843C000010024080B582B000AF7860064B1B6B19
:10844C00102293431900044B7A680A431A63C046FE
:10845C00BD4602B080BDC0460010024080B500AFE2
:10846C00044B1A68034B802149040A431A60C04626
:10847C00BD4680BD0010024080B500AF074B1A68A6
:10848C0080239B041340FE221206944663445A42F6
:10849C005341DBB21800BD4680BDC04600100240FF
:1084AC0080B584B000AFF860B9607A600B4B5B6844
:1084BC000B4A13401900FA68BB681A43074B0A436E
:1084CC005A60064BDB6A0F2293431900034B7A6800
:1084DC000A43DA62C046BD4604B080BD00100240BB
:1084EC00FF7FC2FF80B584B000AF7860074BD969BD
:1084FC00064B7A680A43DA61044BDB697A681340ED
:10850C00FB60FB68C046BD4604B080BD0010024055
:10851C0080B582B000AF7860064B1B680122934394
:10852C001900044B7A680A431A60C046BD4602B073
:10853C0080BDC0460020024080B500AF034B1B68D5
:10854C00012213401800BD4680BDC04600200240E9
:10855C0080B582B000AF78607B681B6880221A43BC
:10856C007B681A60C046BD4602B080BD90B58BB02A
:10857C0000AF00F011FD00F093F800237B620CE0DB
:10858C007B6A9B003C4A9446634419683B4B7A6A6D
:10859C009200D1507B6A01337B627B6A2F2BEFD91F
:1085AC00374B9A69364B01210A439A61344B9B69CC
:1085BC00012213403B603B68324B1A68314B03215C
:1085CC008A431A602F4B1A682E4B03210A431A60F8
:1085DC0000F0FAF900F016F900F03CF900F0C4F9DB
:1085EC0000F092F900F0CEF800F0ACF800F05CF975
:1085FC00254A264B11001800FFF74CFE234B1800A0
:10860C00FFF71EFE2223FB1800221A803B1D0022BE
:10861C001A6004331A220021180002F043F91C4995
:10862C001C481E231E2201F02BFC184B1800FFF7D0
:10863C0007FE80239B01184A1900100000F081FFEF
:10864C0022243B191A8815493B1D180002F00AF91F
:10865C00391D10481E231E2201F012FC3B191A88EA
:10866C003B1901321A80642000F0C6FC074B18003D
:10867C00FFF7E6FDD9E7C0460080000800000020A7
:10868C000010024000000140FF0F000000300040CD
:10869C00D4B10008F805002000080048F0B100082B
:1086AC0080B500AF0120FFF733FFC046FFF744FF52
:1086BC000300012BFAD1FFF719FEC046FFF724FE89
:1086CC000300012BFAD1FFF733FEC046FFF73EFE45
:1086DC000300012BFAD1FFF7FBFD80235903802304
:1086EC005B0200221800FFF7DBFEFFF7B7FEC04667
:1086FC00FFF7C2FE0300012BFAD10020FFF756FE54
:10870C000020FFF767FE0220FFF730FEC046FFF7A0
:10871C0041FE0300082BFAD1094B180002F094F823
:10872C00032000F029FB031E01D000F0C5F9002046
:10873C00FFF766FE1020FFF77DFEC046BD4680BDEC
:10874C00006CDC0280B500AF0C4B0D4A1A600B4B71
:10875C0000221A71094B0022DA60084B00221A61C0
:10876C00064B01229A61054B180000F016FD031E02
:10877C0001D000F0A1F9C046BD4680BD78040020B0
:10878C000030024080B500AF1B4B1C4A1A601A4BDC
:10879C001B4A5A60184B00229A60174B0122DA6070
:1087AC00154B00221A61144B00225A61124B002205
:1087BC009A61114B0022DA610F4B00221A620E4BA8
:1087CC00180000F0D9FE031E01D000F075F90A4B19
:1087DC000021180000F066FF031E01D000F06CF9B8
:1087EC00054B0021180000F0A9FF031E01D000F07A
:1087FC0063F9C046BD4680BD94040020005400407F
:10880C005D3E302080B500AF104B1800FFF70AFD1D
:10881C000E4B1800FFF722FD0C4B06211800FFF73A
:10882C002BFD0B4A094B11001800FFF733FDC04616
:10883C00064B1800FFF73CFD0300012BF8D1034B4E
:10884C001800FFF7FDFCC046BD4680BD003000405F
:10885C00FF0F000080B586B000AF3B1D180014233D
:10886C001A00002102F01EF81020FFF73BFE3B1D02
:10887C000A4A1A803B1D00225A603B1D084A9A6026
:10888C003B1D084A1900100001F066FF054B18004B
:10889C00FFF75EFEC046BD4606B080BD80BBFFFF45
:1088AC00FFFF00000010004080B500AF144B154ACC
:1088BC001A60134BE12252025A60114B00229A604B
:1088CC000F4B0022DA600E4B00221A610C4B0C226B
:1088DC005A610B4B00229A61094B0022DA61084B5A
:1088EC0000221A62064B00225A62054B180001F056
:1088FC0073FA031E01D000F0DFF8C046BD4680BD00
:10890C00E80400200038014080B500AF144B154A34
:10891C001A60134BE12252025A60114B00229A60EA
:10892C000F4B0022DA600E4B00221A610C4B0C220A
:10893C005A610B4B00229A61094B0022DA61084BF9
:10894C0000221A62064B00225A62054B180001F0F5
:10895C0043FA031E01D000F0AFF8C046BD4680BDFF
:10896C00700500200044004080B500AF144B154A40
:10897C001A60134BE12252025A60114B00229A608A
:10898C000F4B0022DA600E4B00221A610C4B0C22AA
:10899C005A610B4B00229A61094B0022DA61084B99
:1089AC0000221A62064B00225A62054B180001F095
:1089BC0013FA031E01D000F07FF8C046BD4680BDFF
:1089CC00F80500200050004090B58BB000AF142487
:1089DC003B19180014231A00002101F063FF2B4BE4
:1089EC005A692A4B802109030A435A61274B5A6959
:1089FC0080231B0313403B613B69244B5A69234B77
:108A0C008021C9030A435A61204B5A698023DB0336
:108A1C001340FB60FB681D4B5A691C4B802189027B
:108A2C000A435A61194B5A6980239B021340BB605D
:108A3C00BB68164B5A69154B8021C9020A435A610F
:108A4C00124B5A698023DB0213407B607B688023C6
:108A5C009B010F480022190000F056FD3B198022A3
:108A6C0092011A603B1901225A603B1900229A604C
:108A7C003B190022DA603B19054A1900100000F07E
:108A8C00D3FBC046BD460BB090BDC04600100240A3
:108A9C000008004880B582B000AF78607B681B6826
:108AAC00044A934201D100F08BFAC046BD4602B095
:108ABC0080BDC0460014004080B500AF72B6C04601
:108ACC00FEE7000080B582B000AF134B9A69124BE1
:108ADC0001210A439A61104B9B69012213407B6070
:108AEC007B680D4BDA690C4B802149050A43DA612E
:108AFC00094BDA6980235B0513403B603B6800221D
:108B0C000021042000F024FB042000F036FBC046BA
:108B1C00BD4602B080BDC0460010024080B584B096
:108B2C0000AF78607B681B68094A93420BD1094BF4
:108B3C005A69084B40210A435A61064B5B69402233
:108B4C001340FB60FB68C046BD4604B080BDC04608
:108B5C00003002400010024090B58BB000AF78603E
:108B6C0014243B19180014231A00002101F09AFE5A
:108B7C007B681B681D4A934233D11D4B5A691C4BB1
:108B8C00802189020A435A61194B5A6980239B023E
:108B9C0013403B613B693B19C022D2001A60210093
:108BAC007B1812225A607B1800229A607B180322D1
:108BBC00DA607B1804221A617A189023DB05110005
:108BCC00180000F031FB0A4BDA69094B802189034C
:108BDC000A43DA61064BDA6980239B031340FB607E
:108BEC00FB68C046BD460BB090BDC046005400406B
:108BFC000010024090B58FB000AF786024243B1970
:108C0C00180014231A00002101F04CFE7B681B682D
:108C1C00544A934232D1544B9A69534B8021C90127
:108C2C000A439A61504B9A698023DB0113403B62E3
:108C3C003B6A4D4B5A694C4B8021C9020A435A611D
:108C4C00494B5A698023DB021340FB61FB6921000D
:108C5C007B18C0221A607B1802225A607B180022F3
:108C6C009A607B180322DA607B1800221A617B1849
:108C7C003E4A1900100000F0D7FA6FE07B681B68C1
:108C8C003B4A934233D1384BDA69374B8021890206
:108C9C000A43DA61344BDA6980239B021340BB61CF
:108CAC00BB69314B5A69304B802189020A435A61A6
:108CBC002D4B5A6980239B0213407B617B692421D5
:108CCC007B180C221A607B1802225A607B18002237
:108CDC009A607B180322DA607B1801221A617A18D9
:108CEC009023DB051100180000F09EFA36E07B683B
:108CFC001B68204A934231D11B4BDA691A4B8021F5
:108D0C0049030A43DA61184BDA6980235B03134089
:108D1C003B613B69144B5A69134B8021C9020A43CE
:108D2C005A61114B5A698023DB021340FB60FB68CC
:108D3C0024217B1818221A607B1802225A607B1897
:108D4C0000229A607B180322DA607B1804221A61D5
:108D5C007B18064A1900100000F066FAC046BD46A2
:108D6C000FB090BD003801400010024000040048D4
:108D7C000044004000500040B0B58CB000AF7860AB
:108D8C0000237B6200233B62374BDA69364B202190
:108D9C000A43DA61344BDB6920221340BB60BB68A9
:108DAC000C23FA1810243B191100180000F08AFD4E
:108DBC003B19DB687B627B6A002B04D100F06CFDF5
:108DCC000300FB6204E000F067FD03005B00FB6244
:108DDC00FB6A26491800FFF799F90300013B3B6237
:108DEC00234B244A1A60224B234ADA60204B3A6AFE
:108DFC005A601F4B00221A611D4B00229A601C4BBB
:108E0C0000229A612B257C19194B180000F084FD67
:108E1C00030023707B191B78002B1ED17C19144B7B
:108E2C00180000F0D1FD030023707B191B78002B78
:108E3C0013D1122000F0A1F97B68032B09D87B68B1
:108E4C0000221900122000F083F90C4B7A681A608A
:108E5C0003E02B23FB1801221A702B23FB181B7821
:108E6C001800BD460CB0B0BD0010024040420F00CF
:108E7C008006002000140040E703000004040020DA
:108E8C0080B500AFFEE780B500AFFEE780B500AF60
:108E9C00C046BD4680BD80B500AFC046BD4680BD56
:108EAC0080B500AFC046BD4680BD80B500AFC046A2
:108EBC00BD4680BD80B500AF034B180000F0D0FD5F
:108ECC00C046BD4680BDC0468006002080B586B039
:108EDC0000AF7860144A154BD31A7B617B693B61F8
:108EEC00134B1B68002B02D1114B124A1A60104B0A
:108EFC001A687B68D3183A699A4207D201F0DAFCF7
:108F0C0003000C221A6001235B4209E0084B1B682A
:108F1C00FB60074B1A687B68D218054B1A60FB681C
:108F2C001800BD4606B080BD008000200004000083
:108F3C00C80600201808002080B500AFC046BD460A
:108F4C0080BD00000D488546FFF7F6FF0C480D4923
:108F5C000D4A002302E0D458C4500433C4188C4288
:108F6C00F9D30A4A0A4C002301E013600432A242EE
:108F7C00FBD301F0A5FCFFF7F9FAFEE70080002017
:108F8C00000400205C0400206CB200085C0400208B
:108F9C0018080020FEE7000080B500AF074B1A68E8
:108FAC00064B10210A431A600320FFF7E5FEFFF77A
:108FBC0089FD00231800BD4680BDC046002002403C
:108FCC0080B500AF054B1B781A00054B1B68D218F7
:108FDC00034B1A60C046BD4680BDC0460804002045
:108FEC00CC06002080B500AF024B1B681800BD46B4
:108FFC0080BDC046CC06002080B584B000AF786040
:10900C00FFF7F0FF0300BB607B68FB60FB6801337C
:10901C0005D00A4B1B781A00FB689B18FB60C046F6
:10902C00FFF7E0FF0200BB68D31AFA689A42F7D840
:10903C00C046C046BD4604B080BDC04608040020F2
:10904C0080B582B000AF0200FB1D1A70FB1D1B78AF
:10905C007F2B09D8FB1D1B781A001F231A40044BC9
:10906C00012191400A001A60C046BD4602B080BD85
:10907C0000E100E090B583B000AF02003960FB1D49
:10908C001A70FB1D1B787F2B28D82F4AFB1D1B78D1
:10909C005BB29B08C0339B009B58FA1D12781100E1
:1090AC0003220A40D200FF2191400A00D2431A4009
:1090BC0011003B689B01FF221A40FB1D1B78180016
:1090CC0003230340DB009A401F48FB1D1B785BB257
:1090DC009B080A43C0339B001A5031E01B4AFB1D0E
:1090EC001B7819000F230B40083B9B0806339B0091
:1090FC00D31804331B68FA1D1278110003220A409E
:10910C00D200FF2191400A00D2431A4011003B6863
:10911C009B01FF221A40FB1D1B7818000323034000
:10912C00DB009A400948FB1D1B781C000F232340D1
:10913C00083B9B080A4306339B00C31804331A6090
:10914C00C046BD4603B090BD00E100E000ED00E07C
:10915C0080B584B000AFB9607A600F217B18021C17
:10916C001A70BA687B181B785BB211001800FFF7F5
:10917C0081FFC046BD4604B080BD80B582B000AF53
:10918C000200FB1D1A70FB1D1B785BB21800FFF769
:10919C0057FFC046BD4602B080BD80B582B000AF5F
:1091AC0078607B68002B01D1012339E07B685B7D03
:1091BC00DBB2002B06D17B6800221A757B68180085
:1091CC00FFF7ACFC7B6802225A757B681B79002B7D
:1091DC0005D17B681B68012252421A6104E07B684E
:1091EC001B687A6892681A617B681B689B686022AE
:1091FC00934319007B68DA687B681B680A439A60A2
:10920C007B681B689B688022934319007B681A69F2
:10921C007B681B680A439A607B6801225A7500239D
:10922C001800BD4602B080BD80B586B000AF786036
:10923C00396000237B614FE13B681B6801217A692F
:10924C0091400A001340FB60FB68002B00D140E109
:10925C003B685B6803221340012B05D03B685B68BD
:10926C0003221340022B30D17B689B683B617B69E6
:10927C005B0003229A401300DA433B6913403B61C5
:10928C003B68DA687B695B009A4013003A691343C8
:10929C003B617B683A699A607B685B683B61012241
:1092AC007B699A401300DA433B6913403B613B688E
:1092BC005B681B0901221A407B699A4013003A69CA
:1092CC0013433B617B683A695A603B685B680322D5
:1092DC001340032B17D07B68DB683B617B695B0019
:1092EC0003229A401300DA433B6913403B613B680D
:1092FC009A687B695B009A4013003A6913433B619F
:10930C007B683A69DA603B685B6803221340022B86
:10931C0023D17B69DA087B6808329200D3583B6111
:10932C007B69072213409B000F229A401300DA43FB
:10933C003B6913403B613B681A697B6907210B4011
:10934C009B009A4013003A6913433B617B69DA082E
:10935C007B68083292003969D1507B681B683B618D
:10936C007B695B0003229A401300DA433B6913408C
:10937C003B613B685B6803221A407B695B009A4047
:10938C0013003A6913433B617B683A691A603B6886
:10939C005A68C0239B02134000D19AE0544B9A693F
:1093AC00534B01210A439A61514B9B690122134093
:1093BC00BB60BB684F4A7B699B0802339B009B5880
:1093CC003B617B69032213409B000F229A401300E0
:1093DC00DA433B6913403B617A689023DB059A4280
:1093EC0013D07B68444A93420DD07B68434A934226
:1093FC0007D07B68424A934201D1032306E0052340
:10940C0004E0022302E0012300E000237A69032137
:10941C000A40920093403A6913433B6135497B699A
:10942C009B0802339B003A695A50364B9B683B6150
:10943C00FB68DA433B6913403B613B685A68802305
:10944C005B03134003D03A69FB6813433B612D4B1C
:10945C003A699A602B4BDB683B61FB68DA433B69EA
:10946C0013403B613B685A6880239B03134003D035
:10947C003A69FB6813433B61224B3A69DA60214B32
:10948C005B683B61FB68DA433B6913403B613B68BB
:10949C005A6880239B02134003D03A69FB6813433C
:1094AC003B61184B3A695A60164B1B683B61FB6871
:1094BC00DA433B6913403B613B685A6880235B028B
:1094CC00134003D03A69FB6813433B610D4B3A6977
:1094DC001A607B6901337B613B681A687B69DA40EF
:1094EC00131E00D0A8E6C046C046BD4606B080BDDF
:1094FC000010024000000140000400480008004831
:10950C00000C00480004014080B582B000AF7860C8
:10951C0008001100BB1C021C1A807B1C0A1C1A7050
:10952C007B1C1B78002B04D0BB1C1A887B689A61AF
:10953C0003E0BB1C1A887B689A62C046BD4602B029
:10954C0080BD80B584B000AF78600A00BB1C1A8067
:10955C007B685B69FB60BB1C1B88FA6813401A04B0
:10956C00FB68DB43B91C09880B401A437B689A6182
:10957C00C046BD4604B080BD80B582B000AF7860F7
:10958C007B68002B01D1012382E07B6841229B5C2C
:10959C00DBB2002B07D17B684022002199547B68F9
:1095AC001800FFF7D9FA7B684122242199547B6873
:1095BC001B681A687B681B6801218A431A607B68E8
:1095CC005A687B681B6834490A401A617B681B68BF
:1095DC009A687B681B6831490A409A607B68DB6833
:1095EC00012B08D17B689A687B681B688021090273
:1095FC000A439A6007E07B689A687B681B68842141
:10960C0009020A439A607B68DB68022B04D17B68F1
:10961C001B68802212015A607B681B685A687B6841
:10962C001B681F490A435A607B681B68DA687B68B1
:10963C001B681A490A40DA607B681A697B685B69A7
:10964C001A4311007B689B691A027B681B680A43EA
:10965C00DA607B68D9697B681A6A7B681B680A4385
:10966C001A607B681B681A687B681B6801210A43B7
:10967C001A607B6800225A647B684122202199542D
:10968C007B6800221A637B684222002199540023D4
:10969C001800BD4602B080BDFFFFFFF0FF7FFFFF4B
:1096AC000080000280B582B000AF786039607B68C2
:1096BC0041229B5CDBB2202B38D17B6840229B5C27
:1096CC00012B01D1022332E07B6840220121995405
:1096DC007B684122242199547B681B681A687B683B
:1096EC001B6801218A431A607B681B681A687B68B7
:1096FC001B6811490A401A607B681B6819687B68F3
:10970C001B683A680A431A607B681B681A687B6896
:10971C001B6801210A431A607B684122202199545D
:10972C007B68402200219954002300E0022318009A
:10973C00BD4602B080BDC046FFEFFFFF80B584B0D0
:10974C0000AF786039607B6841229B5CDBB2202BD8
:10975C0039D17B6840229B5C012B01D1022333E081
:10976C007B684022012199547B6841222421995421
:10977C007B681B681A687B681B6801218A431A6026
:10978C007B681B681B68FB60FB68114A1340FB601D
:10979C003B681B02FA681343FB607B681B68FA6822
:1097AC001A607B681B681A687B681B6801210A4376
:1097BC001A607B684122202199547B684022002149
:1097CC009954002300E002231800BD4604B080BD6C
:1097DC00FFF0FFFF80B586B000AF0023FB600023D5
:1097EC00BB6000237B6100237B6000233B61214B2A
:1097FC005B68FB60FB680C221340042B02D0082B27
:10980C0003D02EE01C4B3B612EE0FB689B0C0F221F
:10981C0013401A4AD35C7B60164BDB6A0F22134051
:10982C00174AD35CBB60FA68C0235B021A408023E2
:10983C005B029A4209D1B9680F48FEF767FC030036
:10984C001A007B6853437B6108E0B9680A48FEF74D
:10985C005DFC03001A007B6853437B617B693B61B1
:10986C0002E0054B3B61C0463B691800BD4606B0A3
:10987C0080BDC0460010024000127A0010B20008F1
:10988C0020B2000880B500AF024B1B681800BD4623
:10989C0080BDC0460004002080B500AFFFF7F2FF8A
:1098AC000100064B5B681B0A07221340044AD35C79
:1098BC00D9400B001800BD4680BDC04600100240C8
:1098CC0008B2000880B582B000AF786039607B6860
:1098DC0007221A600E4B5B6803221A407B685A60A1
:1098EC000B4B5B68F0221A407B689A60084B5A68F5
:1098FC00E023DB001A407B68DA60064B1B68012210
:10990C001A403B681A60C046BD4602B080BDC046D6
:10991C00001002400020024080B582B000AF786099
:10992C007B68002B01D1012342E07B683D229B5CCC
:10993C00DBB2002B07D17B683C22002199547B6859
:10994C00180000F039F87B683D22022199547B689D
:10995C001A687B6804331900100000F0B7F97B68B3
:10996C004622012199547B683E22012199547B683F
:10997C003F22012199547B684022012199547B6834
:10998C004122012199547B684222012199547B6820
:10999C004322012199547B684422012199547B680C
:1099AC004522012199547B683D22012199540023C1
:1099BC001800BD4602B080BD80B582B000AF7860A3
:1099CC00C046BD4602B080BD80B584B000AF7860A3
:1099DC007B683D229B5CDBB2012B01D0012335E07F
:1099EC007B683D22022199547B681B68DA687B688E
:1099FC001B6801210A43DA607B681B68154A934295
:109A0C0009D07B681B68144A934204D07B681B689E
:109A1C00124A934211D17B681B689B680722134042
:109A2C00FB60FB68062B10D07B681B681A687B6890
:109A3C001B6801210A431A6007E07B681B681A68DF
:109A4C007B681B6801210A431A6000231800BD467D
:109A5C0004B080BD002C01400004004000400140D7
:109A6C0080B582B000AF78607B681B681B690222EE
:109A7C001340022B24D17B681B68DB680222134045
:109A8C00022B1DD17B681B68032252421A617B6832
:109A9C0001221A777B681B689B690322134004D050
:109AAC007B68180000F0FAF807E07B68180000F0FB
:109ABC00EDF87B68180000F0F9F87B6800221A7743
:109ACC007B681B681B6904221340042B25D17B681F
:109ADC001B68DB6804221340042B1ED17B681B68B7
:109AEC00052252421A617B6802221A777B681B6836
:109AFC009A69C0239B00134004D07B68180000F0C7
:109B0C00CDF807E07B68180000F0C0F87B681800FF
:109B1C0000F0CCF87B6800221A777B681B681B6905
:109B2C0008221340082B24D17B681B68DB680822B1
:109B3C001340082B1DD17B681B68092252421A6105
:109B4C007B6804221A777B681B68DB69032213404D
:109B5C0004D07B68180000F0A1F807E07B681800BF
:109B6C0000F094F87B68180000F0A0F87B680022E5
:109B7C001A777B681B681B6910221340102B25D1A8
:109B8C007B681B68DB6810221340102B1ED17B688E
:109B9C001B68112252421A617B6808221A777B6873
:109BAC001B68DA69C0239B00134004D07B68180043
:109BBC0000F074F807E07B68180000F067F87B6829
:109BCC00180000F073F87B6800221A777B681B681A
:109BDC001B6901221340012B0FD17B681B68DB68CA
:109BEC0001221340012B08D17B681B6802225242D0
:109BFC001A617B681800FEF74DFF7B681B681B69B8
:109C0C0080221340802B0FD17B681B68DB6880227D
:109C1C001340802B08D17B681B68812252421A6149
:109C2C007B68180000F0D0F87B681B681B69402229
:109C3C001340402B0FD17B681B68DB68402213401C
:109C4C00402B08D17B681B68412252421A617B6809
:109C5C00180000F033F87B681B681B692022134046
:109C6C00202B0FD17B681B68DB6820221340202B34
:109C7C0008D17B681B68212252421A617B6818004C
:109C8C0000F09AF8C046BD4602B080BD80B582B0E7
:109C9C0000AF7860C046BD4602B080BD80B582B0D2
:109CAC0000AF7860C046BD4602B080BD80B582B0C2
:109CBC0000AF7860C046BD4602B080BD80B582B0B2
:109CCC0000AF7860C046BD4602B080BD80B584B0A0
:109CDC0000AF786039607B681B68FB607B682F4A3B
:109CEC00934203D07B682E4A934208D1FB687022C2
:109CFC009343FB603B685B68FA681343FB607B68CB
:109D0C00264A934213D07B68254A93420FD07B6836
:109D1C00244A93420BD07B68234A934207D07B683A
:109D2C00224A934203D07B68214A934208D1FB68B4
:109D3C00204A1340FB603B68DB68FA681343FB6006
:109D4C00FB68802293431A003B685B691343FB60FA
:109D5C007B68FA681A603B689A687B68DA623B68D1
:109D6C001A687B689A627B680C4A93420BD07B68BA
:109D7C000D4A934207D07B680C4A934203D07B6810
:109D8C000B4A934203D13B681A697B681A637B6860
:109D9C0001225A61C046BD4604B080BD002C014072
:109DAC0000040040002000400040014000440140FD
:109DBC0000480140FFFCFFFF80B582B000AF786027
:109DCC00C046BD4602B080BD80B582B000AF7860A1
:109DDC00C046BD4602B080BD80B582B000AF786091
:109DEC007B68002B01D1012344E07B68DB6F002BE7
:109DFC0007D17B687822002199547B681800FEF704
:109E0C00F9FE7B682422DA677B681B681A687B681A
:109E1C001B6801218A431A607B68180000F0D0F897
:109E2C000300012B01D1012324E07B685B6A002B2A
:109E3C0003D07B68180000F033FA7B681B685A6803
:109E4C007B681B680D490A405A607B681B689A68DE
:109E5C007B681B6808218A439A607B681B681A68B8
:109E6C007B681B6801210A431A607B68180000F0AC
:109E7C00CBFA03001800BD4602B080BDFFF7FFFF10
:109E8C0080B58AB002AFF860B9603B60BB1D1A8028
:109E9C00FB68DB6F202B00D08DE0BB68002B03D060
:109EAC00BB1D1B88002B01D1012385E0FB689A6840
:109EBC0080235B019A4209D1FB681B69002B05D1F9
:109ECC00BB680122134001D0012375E0FB6884229A
:109EDC0000219950FB682122DA67FFF783F8030011
:109EEC007B61FB68BA1D502112885A52FB68BA1D5F
:109EFC00522112885A52FB689A6880235B019A425D
:109F0C0008D1FB681B69002B04D10023FB61BB68E3
:109F1C00BB6103E0BB68FB610023BB6130E07A6985
:109F2C00F8683B68009313000022802100F014FBBA
:109F3C00031E04D0FB682022DA6703233CE0FB6994
:109F4C00002B0BD1BB691A88FB681B68D205D20D9C
:109F5C0092B21A85BB690233BB6108E0FB691A78BF
:109F6C00FB681B6892B21A85FB690133FB61FB68C5
:109F7C0052229B5A9BB2013B99B2FB6852229952D6
:109F8C00FB6852229B5A9BB2002BC8D17A69F868A5
:109F9C003B68009313000022402100F0DDFA031E01
:109FAC0004D0FB682022DA67032305E0FB6820223B
:109FBC00DA67002300E002231800BD4608B080BD1C
:109FCC0080B588B000AF78601E23FB1800221A7091
:109FDC007B689A687B681B691A437B685B691A43C8
:109FEC007B68DB6913437B617B681B681B68A14A38
:109FFC00134019007B681B687A690A431A607B68F6
:10A00C001B685B689C4A134019007B68DA687B68A4
:10A01C001B680A435A607B689B697B617B681B6A7F
:10A02C007A6913437B617B681B689B68934A134076
:10A03C0019007B681B687A690A439A607B681B6805
:10A04C008F4A934227D18F4B1B6B03221340032B58
:10A05C000DD01BD8022B14D018D8002B02D0012BFA
:10A06C000AD013E01F23FB1800221A7049E01F23AB
:10A07C00FB1802221A7044E01F23FB1804221A70EA
:10A08C003FE01F23FB1808221A703AE01F23FB182D
:10A09C0010221A7035E07B681B687B4A934204D10E
:10A0AC001F23FB1800221A702BE07B681B68774A71
:10A0BC00934204D11F23FB1800221A7021E07B6805
:10A0CC001B68734A934204D11F23FB1800221A7099
:10A0DC0017E07B681B686F4A934204D11F23FB185F
:10A0EC0000221A700DE07B681B686B4A934204D106
:10A0FC001F23FB1800221A7003E01F23FB181022E9
:10A10C001A707B68DA6980231B029A425CD11F2388
:10A11C00FB181B78082B15D018DC042B0DD015DC84
:10A12C00002B02D0022B05D010E0FFF7B5FB03008B
:10A13C00BB6112E0594BBB610FE0FFF74BFB030017
:10A14C00BB610AE080231B02BB6106E00023BB61FC
:10A15C001E23FB1801221A70C046BB69002B00D1CC
:10A16C007AE0BB695A007B685B685B08D2187B6835
:10A17C005B6819001000FDF7C9FF03003B613B69E8
:10A18C000F2B1CD93A6980235B029A4217D23B6988
:10A19C009AB20E203B180F218A431A803B695B0848
:10A1AC009BB20722134099B23B183A1812880A4303
:10A1BC001A807B681B683A181288DA604CE01E2300
:10A1CC00FB1801221A7047E01F23FB181B78082B81
:10A1DC0015D018DC042B0DD015DC002B02D0022B73
:10A1EC0005D010E0FFF758FB0300BB6112E02B4BCE
:10A1FC00BB610FE0FFF7EEFA0300BB610AE08023BE
:10A20C001B02BB6106E00023BB611E23FB1801226D
:10A21C001A70C046BB69002B1ED07B685B685A085D
:10A22C00BB69D2187B685B6819001000FDF76EFFE4
:10A23C0003003B613B690F2B0AD93A6980235B020F
:10A24C009A4205D23B699AB27B681B68DA6003E0DC
:10A25C001E23FB1801221A707B6800229A667B6809
:10A26C000022DA661E23FB181B781800BD4608B0C6
:10A27C0080BDC046F369FFEFFFCFFFFFFFF4FFFF88
:10A28C0000380140001002400044004000480040EB
:10A29C00004C0040005000400014014000127A00B5
:10A2AC0080B582B000AF78607B685B6A0122134096
:10A2BC000BD07B681B685B684A4A134019007B68AB
:10A2CC009A6A7B681B680A435A607B685B6A022245
:10A2DC0013400BD07B681B685B68434A1340190022
:10A2EC007B68DA6A7B681B680A435A607B685B6A26
:10A2FC00042213400BD07B681B685B683B4A1340FD
:10A30C0019007B681A6B7B681B680A435A607B6870
:10A31C005B6A082213400BD07B681B685B68344A6D
:10A32C00134019007B685A6B7B681B680A435A60A0
:10A33C007B685B6A102213400BD07B681B689B68A0
:10A34C002C4A134019007B689A6B7B681B680A4384
:10A35C009A607B685B6A202213400BD07B681B6879
:10A36C009B68254A134019007B68DA6B7B681B6875
:10A37C000A439A607B685B6A402213401DD07B685D
:10A38C001B685B681D4A134019007B681A6C7B685C
:10A39C001B680A435A607B681A6C80235B039A42E1
:10A3AC000BD17B681B685B68154A134019007B68EE
:10A3BC005A6C7B681B680A435A607B685B6A802214
:10A3CC0013400BD07B681B685B680E4A1340190066
:10A3DC007B689A6C7B681B680A435A60C046BD4612
:10A3EC0002B080BDFFFFFDFFFFFFFEFFFFFFFBFF85
:10A3FC00FF7FFFFFFFEFFFFFFFDFFFFFFFFFEFFF21
:10A40C00FFFF9FFFFFFFF7FF80B592B002AF7860B0
:10A41C007B68842200219950FEF7E4FD0300FB6366
:10A42C007B681B681B6808221340082B2CD1FB6B24
:10A43C00802291037868464A0092002200F08CF842
:10A44C00031E21D0EFF310837B627B6ABB63012375
:10A45C00BB62BB6A83F31088C0467B681B681A68B2
:10A46C007B681B6880218A431A60BB6BFB62FB6AAA
:10A47C0083F31088C0467B682022DA677B687822D9
:10A48C000021995403235FE07B681B681B6804223E
:10A49C001340042B46D1FB6B8022D10378682C4AE5
:10A4AC000092002200F058F8031E3BD0EFF310830B
:10A4BC00FB60FB687B6301233B613B6983F3108882
:10A4CC00C0467B681B681A687B681B6821490A4078
:10A4DC001A607B6B7B617B6983F31088C046EFF35A
:10A4EC001083BB61BB693B630123FB61FB6983F395
:10A4FC001088C0467B681B689A687B681B680121C2
:10A50C008A439A603B6B3B623B6A83F31088C0467C
:10A51C007B688022202199507B68782200219954F5
:10A52C00032311E07B682022DA677B6880222021DC
:10A53C0099507B6800221A667B6800225A667B68F9
:10A54C0078220021995400231800BD4610B080BD1C
:10A55C00FFFFFF01DFFEFFFF80B584B000AFF860A6
:10A56C00B9603B60FB1D1A704BE0BB69013348D0EE
:10A57C00FEF738FD02003B68D31ABA699A4202D33F
:10A58C00BB69002B01D103234BE0FB681B681B68E4
:10A59C000422134035D0FB681B68DB69082213408A
:10A5AC00082B11D1FB681B6808221A62FB68180083
:10A5BC0000F03CF8FB68842208219950FB68782253
:10A5CC000021995401232CE0FB681B68DA69802375
:10A5DC001B011A4080231B019A4212D1FB681B6895
:10A5EC00802212011A62FB68180000F01FF8FB6849
:10A5FC00842220219950FB6878220021995403234E
:10A60C000FE0FB681B68DB69BA681340BA68D31AA1
:10A61C005A425341DBB21A00FB1D1B789A42A4D05C
:10A62C0000231800BD4604B080BD000080B58EB07C
:10A63C0000AF7860EFF310837B617B697B63012350
:10A64C00BB61BB6983F31088C0467B681B681A68C2
:10A65C007B681B6826490A401A607B6BFB61FB69AF
:10A66C0083F31088C046EFF310833B623B6A3B6375
:10A67C0001237B627B6A83F31088C0467B681B686E
:10A68C009A687B681B6801218A439A603B6BBB62AA
:10A69C00BB6A83F31088C0467B681B6E012B18D1F4
:10A6AC00EFF31083BB60BB68FB620123FB60FB68AC
:10A6BC0083F31088C0467B681B681A687B681B682C
:10A6CC0010218A431A60FB6A3B613B6983F3108853
:10A6DC00C0467B688022202199507B6800221A6634
:10A6EC007B6800229A66C046BD460EB080BDC0464F
:10A6FC00DFFEFFFF80B582B000AF786039607B6809
:10A70C003A689A62C046BD4602B080BD80B582B040
:10A71C0000AF786039607B683A68DA62C046BD4643
:10A72C0002B080BD80B582B000AF786039607B68C4
:10A73C003A681A63C046BD4602B080BD80B582B08F
:10A74C0000AF78607B685B6901221A437B685A61B1
:10A75C00C046BD4602B080BD80B584B000AF786005
:10A76C0039607B681B68FB607B68304A934203D07E
:10A77C007B682F4A934207D1FB68702293431A00DF
:10A78C003B685B681343FB607B68284A934213D099
:10A79C007B68274A93420FD07B68264A93420BD0A2
:10A7AC007B68254A934207D07B68244A934203D0A6
:10A7BC007B68234A934206D1FB68224A1A403B68C5
:10A7CC00DB681343FB607B68FA681A603B689A6825
:10A7DC007B6811001800FFF799FF3B681B881A0073
:10A7EC007B6811001800FFF785FF7B680F4A9342C6
:10A7FC000BD07B68104A934207D07B680F4A934278
:10A80C0003D07B680E4A934206D13B681A697B6879
:10A81C0011001800FFF786FF7B681800FFF78EFF0A
:10A82C0000231800BD4604B080BDC046002C01407A
:10A83C000004004000200040004001400044014062
:10A84C0000480140FFFCFFFF80B582B000AF78608C
:10A85C00034B7A681A60C046BD4602B080BDC04644
:10A86C00000400200EB400B50B499CB01DAB029047
:10A87C000690079104910948094904CB0591006899
:10A88C0002A9019300F0A2F90022029B1A701CB0DD
:10A89C0008BC03B01847C046FFFFFF7F58040020D8
:10A8AC000802FFFF03008218934200D17047197011
:10A8BC000133F9E7014B18687047C0465804002073
:10A8CC0070B500260C4C0D4D641BA410A64209D18A
:10A8DC00002600F06DFC0A4C0A4D641BA410A64225
:10A8EC0005D170BDB300EB5898470136EEE7B300C5
:10A8FC00EB5898470136F2E764B2000864B20008DE
:10A90C0068B2000864B200087047704770B5050063
:10A91C00002910D00C1F2368002B00DAE418280043
:10A92C0000F0E2F81D4A1368002B05D16360146037
:10A93C00280000F0E1F870BDA34208D92068211866
:10A94C008B42F3D119685B6809182160EEE71A0095
:10A95C005B68002B01D0A342F9D911685018A042B2
:10A96C000BD120680918501811608342E0D1186887
:10A97C005B68411811605360DAE7A04202D90C23DE
:10A98C002B60D5E7206821188B4203D119685B68CE
:10A99C000918216063605460CAE7C04610080020A3
:10A9AC0070B50F4E0D0031680400002902D100F083
:10A9BC00A1FB30602900200000F09CFB431C0AD056
:10A9CC000323C51C9D43A84207D0291A200000F080
:10A9DC0091FB013001D101256D42280070BDC046AC
:10A9EC0014080020F7B50322CB1C93430833060050
:10A9FC001F000C2B38D20C27B94237D8300000F08E
:10AA0C0073F8384B00931B681C00002C33D13900B1
:10AA1C003000FFF7C5FF0400431C5ED1009B1C688F
:10AA2C002500002D4ED1002C51D023682900E318AD
:10AA3C003000019300F05EFB019B834247D12368F9
:10AA4C003000FF1A3900FFF7ABFF01303FD023680D
:10AA5C00DB192360009B1B68002B40D05A68A24274
:10AA6C0033D100225A6014E0002BC5DA0C230025E8
:10AA7C0033602800FEBD2168C91B20D40B2918D9CE
:10AA8C00E2192760A34212D1009B1A60636811601F
:10AA9C0053603000250000F02FF807220B35231DE2
:10AAAC009543EA1A9D42E4D05B1BA350E1E75A6040
:10AABC00ECE76268A342D5D1009B1A60E9E723005A
:10AACC006468A2E72C006D68ABE71300C4E70C23A5
:10AADC003000336000F010F8CBE72760D9E75B60FB
:10AAEC00FFDEC0461008002010B50248FFF70CFF2F
:10AAFC0010BDC0460C08002010B50248FFF705FF3A
:10AB0C0010BDC0460C080020F0B585B0019303922F
:10AB1C008E68019A07000C000B68964231D88A891E
:10AB2C009021C9000A4229D0032021695B1A0293A3
:10AB3C0063694343DD0FED18019B029801331B1829
:10AB4C006D10AB4200D91D00520529D529003800E3
:10AB5C00FFF748FF061E2DD0029A216900F0E7FA94
:10AB6C00A289194B1A4080231343A381029B2661AF
:10AB7C00F61826606561019EED1AA560019B9E4248
:10AB8C0000D9019E32000399206800F09FFA002042
:10AB9C00A3689B1BA36023689B19236005B0F0BDC1
:10ABAC002A00380000F0CCFA061EDFD138002169EB
:10ABBC00FFF7ACFE0C2301203B60A2893433134316
:10ABCC00A3814042EAE7C0467FFBFFFFF0B5A1B08E
:10ABDC0003901D008B890F0016001B0611D50B6905
:10ABEC00002B0ED14021FFF7FDFE386038610028A4
:10ABFC0005D10C23039A0138136021B0F0BD40231A
:10AC0C007B61002308AC6361203363761033A37639
:10AC1C00079535002B78002B01D0252B48D1AB1B89
:10AC2C000593B5420BD0320039000398FFF76CFF47
:10AC3C00013000D1AFE06369059A9B1863612B78F2
:10AC4C00002B00D1A7E0012200235242626004A92C
:10AC5C00543252186E1C2360E360A3601370A3651A
:10AC6C00554B052218003178059300F055FA751CE8
:10AC7C0000281FD12268D30604D5532304A95B18DE
:10AC8C0020211970130704D5532304A95B182B2119
:10AC9C00197033782A2B16D0350000210A20E3686E
:10ACAC002A786E1C303A092A4ED9002911D117E0A6
:10ACBC000135AFE7059B2268C01A0123834013437B
:10ACCC002E002360CCE7079B191D1B680791002BF6
:10ACDC0001DB0B9304E05B42E3600223134323602C
:10ACEC002B782E2B0AD16B782A2B35D1079B02356A
:10ACFC001A1D1B680792002B2BDB09932F4E032286
:10AD0C003000297800F008FA002806D04023801B78
:10AD1C008340226801351343236029780622284892
:10AD2C006E1C217600F0F8F900283CD0254B002B46
:10AD3C0025D10722079B0733934308330793636995
:10AD4C00049A9B18636164E74343350001219B1807
:10AD5C00A6E701235B42D0E700230A201A00013545
:10AD6C00636029786E1C3039092903D9002BC5D0B2
:10AD7C000992C3E74243350001235218F1E707AAB1
:10AD8C00009221003A00104B039800E000BF0490A1
:10AD9C00049B0133D3D1BB890D985B0600D42CE7FF
:10ADAC000120404229E707AA009221003A00064BF5
:10ADBC00039800F07BF8EAE730B2000836B20008DE
:10ADCC003AB200080000000015AB0008F7B51600F9
:10ADDC0001938A680B690C000090934200DA13000F
:10ADEC002200336043321278002A01D001333360E1
:10ADFC0023689B0602D5336802333360226806232E
:10AE0C0015001D401A4227D0230043331B785A1ECD
:10AE1C0093412268920630D4220001990098089D33
:10AE2C004332A847013025D0062223680025134061
:10AE3C00042B05D13368E568ED1AEB43DB171D4095
:10AE4C00A3682269934201DD9B1AED180026B542D6
:10AE5C0020D1002010E00135E36832689B1AAB4228
:10AE6C00D2DD2200012301990098089F1932B847BE
:10AE7C000130F0D101204042FEBD3020E1184331B9
:10AE8C00087021005A1C45310978A218433202334C
:10AE9C001170C1E72200012301990098089F1A3212
:10AEAC00B8470130E6D00136D1E70000F0B58BB0E1
:10AEBC0006920A0043320793059004920A7E0C0016
:10AECC00109B782A09D8622A0BD8002A00D1BEE040
:10AEDC007C490391582A00D193E026004236327007
:10AEEC0022E0100063381528F7D8FDF705F9160095
:10AEFC001F00F6FFF6FFF6FFF6FF1F00F6FFF6FF4A
:10AF0C00F6FFF6FFA30036008300F6FFF6FFB40051
:10AF1C00F6FF3600F6FFF6FF870026001A68423669
:10AF2C00111D1960136833700123A2E018680968B9
:10AF3C00021D0D060BD505681A60002D03DA2D23B2
:10AF4C00049A6D4213705F4B0A2703931BE005684C
:10AF5C001A604906F1D52DB2EFE70D681968081D86
:10AF6C0018602E0601D50D6803E06D06FBD50D6843
:10AF7C00ADB2544B082703936F2A00D0023723003D
:10AF8C00002243331A706368A360002B03DB042197
:10AF9C0022688A432260002D02D1049E002B0CD023
:10AFAC00049E28003900FDF737F9039B013E5B5CDA
:10AFBC0033702B0005009F42F3D9082F09D1236869
:10AFCC00DB0706D5626823699A4202DC3023013E16
:10AFDC003370049B9B1B2361079B210000930598F6
:10AFEC00069B09AAFFF7F2FE013047D1012040422F
:10AFFC000BB0F0BD202209680A4322607822324946
:10B00C000391210045310A701968226820C9100685
:10B01C0002D4500600D5ADB21960D30702D5202357
:10B02C00134323601027002DA9D1202223689343BA
:10B03C002360A4E71A680D68101D4969186013682D
:10B04C002E0601D5196002E06D06FBD51980002390
:10B05C00049E2361C0E71A68111D1960166800214F
:10B06C003000626800F058F8002801D0801B606046
:10B07C00636823610023049A1370ADE732002369DF
:10B08C0006990598079DA8470130AFD023689B0708
:10B09C0015D4099BE0689842AADA1800A8E72200A8
:10B0AC00012306990598079E1932B04701309DD0AF
:10B0BC000135E368099A9B1AAB42F0DCE9E70025FD
:10B0CC00F7E7C04641B2000852B2000810B58842FA
:10B0DC0002D98B18984203D3002307E08B5C83546E
:10B0EC00013AFBD210BDCC5CC45401339A42FAD164
:10B0FC00F8E70000002370B5064D040008002B6033
:10B10C00FDF7E4FE431C03D12B68002B00D0236019
:10B11C0070BDC04608080020C9B28218904201D107
:10B12C000020704703788B42FBD00130F6E70023F8
:10B13C0010B59A4200D110BDCC5CC4540133F8E771
:10B14C00F7B507000E001400002905D11100FFF718
:10B15C0049FC05002800FEBD002A03D1FFF7D6FBF1
:10B16C002500F7E700F01BF80190844203D8350066
:10B17C004308A342EED321003800FFF733FC051E31
:10B18C00E8D0019B22009C4200D91A003100280013
:10B19C00FFF7CDFF31003800FFF7B8FBDAE70B1FE4
:10B1AC001B68181F002B01DA0B58C01870470000E1
:10B1BC00F8B5C046F8BC08BC9E467047F8B5C0460A
:08B1CC00F8BC08BC9E46704768
:10B1D4002D2D55534552204150504C49434154491B
:10B1E4004F4E2031204941502D2D0A00436F756E7A
:10B1F4007420557365722031204941503A202564EA
:10B204000A00000000000000010203040203040518
:10B21400060708090A0B0C0D0E0F10100102030497
:10B2240005060708090A0B0C0D0E0F10232D302BF1
:10B234002000686C4C006566674546470030313233
:10B24400333435363738394142434445460030318A
:10B2540032333435363738396162636465660000E9
:04B26400E580000879
:04B26800BD8000089D
:10B26C0000127A0004000000010000000000000041
:10B27C00D006002038070020A007002000000000A6
:10B28C0000000000000000000000000000000000B2
:10B29C0000000000000000000000000000000000A2
:10B2AC000000000000000000000000000000000092
:0CB2BC0000000000000000000C04002056
:10B2C8000000000000000000000000000000000076
:10B2D8000000000000000000000000000000000066
:10B2E8000000000000000000000000000000000056
:10B2F8000000000000000000000000000000000046
:10B308000000000000000000000000000000000035
:10B318000000000000000000000000000000000025
:10B328000000000000000000000000000000000015
:10B338000000000000000000000000000000000005
:10B3480000000000000000000000000000000000F5
:10B3580000000000000000000000000000000000E5
:10B3680000000000000000000000000000000000D5
:10B3780000000000000000000000000000000000C5
:0400000508008F510F
:00000001FF
